:020000040800F2
:1000000000000820452F0008D12E0008D32E00083C
:10001000D52E0008D72E0008D92E000800000000B9
:10002000000000000000000000000000DB2E0008BF
:10003000DD2E000800000000DF2E0008E12E000881
:10004000952F0008952F0008952F0008952F000880
:10005000952F0008952F0008952F0008952F000870
:10006000952F0008952F0008952F0008952F000860
:10007000952F0008952F0008952F0008952F000850
:10008000952F0008952F0008952F0008E92E0008ED
:10009000F92E0008092F0008192F0008952F0008D5
:1000A000952F0008952F0008952F0008952F000820
:1000B000952F0008952F0008952F0008952F000810
:1000C000952F0008952F0008952F0008952F000800
:1000D000952F0008952F0008952F0008952F0008F0
:1000E000952F0008952F0008952F0008952F0008E0
:1000F000952F0008952F0008952F0008952F0008D0
:10010000952F0008952F0008952F0008952F0008BF
:10011000952F0008952F0008952F0008952F0008AF
:10012000952F0008952F0008952F0008952F00089F
:10013000952F0008952F0008952F0008952F00088F
:10014000952F0008952F0008952F0008952F00087F
:10015000952F0008952F0008952F0008952F00086F
:10016000952F0008952F0008952F0008952F00085F
:10017000952F0008952F0008952F0008000000001B
:10018000952F0008952F0008952F0008952F00083F
:10019000952F0008952F0008952F0008952F00082F
:1001A000952F0008952F0008952F0008952F00081F
:1001B000952F0008952F0008952F0008952F00080F
:1001C000952F0008952F0008952F0008952F0008FF
:1001D000952F0008952F0008952F0008952F0008EF
:1001E000952F0008952F0008952F0008952F0008DF
:0801F000952F0008952F00086F
:1001F80010B5054C237833B9044B13B10448AFF359
:1002080000800123237010BD0C00002000000000B6
:10021800F02F000808B5034B1BB103490348AFF39F
:10022800008008BD0000000010000020F02F00082A
:1002380053B94AB9002908BF00281CBF4FF0FF3145
:100248004FF0FF3000F072B9ADF1080C6DE904CE43
:1002580000F006F8DDF804E0DDE9022304B0704799
:100268002DE9F047089E04468846002B4BD18A4268
:10027800154667D9B2FA82F24AB1C2F1200701FAEB
:1002880002F320FA07F7954047EA030894404FEA3B
:10029800154E230CB8FBFEF71FFA85FC0EFB1788DA
:1002A80043EA084307FB0CF1994209D9EB1807F117
:1002B800FF3080F01B81994240F21881023F2B44A5
:1002C8005B1AA4B2B3FBFEF00EFB103344EA0344FE
:1002D80000FB0CFCA44509D92C1900F1FF3380F070
:1002E8000781A44540F2048102382C4440EA0740C3
:1002F800A4EB0C0400271EB1D4400023C6E9004338
:100308003946BDE8F0878B4209D9002E00F0EB8012
:100318000027C6E9000138463946BDE8F087B3FA38
:1003280083F7002F47D18B4202D3824200F2FA8032
:10033800841A61EB030301209846002EE0D0C6E939
:100348000048DDE702B9FFDEB2FA82F2002A40F087
:100358008F80491B4FEA154E1FFA85F80127B1FB1C
:10036800FEFC230C0EFB1C1143EA014308FB0CF1B5
:10037800994207D9EB180CF1FF3002D2994200F2EA
:10038800CD808446591AA3B2B1FBFEF00EFB1014BF
:1003980043EA044408FB00F8A04507D92C1900F1EA
:1003A800FF3302D2A04500F2B6801846A4EB080439
:1003B80040EA0C409FE7C7F1200CBB4022FA0CFE34
:1003C8004EEA030E01FA07F420FA0CF521FA0CF3B1
:1003D8004FEA1E482543B3FBF8F92C0C08FB1933E8
:1003E8001FFA8EFA44EA034309FB0AF49C4202FA14
:1003F80007F200FA07F10BD91EEB030309F1FF30EE
:1004080080F087809C4240F28480A9F102097344FD
:100418001B1BADB2B3FBF8F008FB103345EA0344ED
:1004280000FB0AFAA24508D91EEB040400F1FF33C9
:100438006BD2A24569D90238744440EA0940A0FB4E
:100448000289A4EB0A044C45C2464B4654D351D00A
:10045800002E69D0B1EB0A0564EB030404FA0CFC26
:10046800FD40FC404CEA0505C6E90054002747E773
:10047800C2F1200320FA03F7954001FA02F021FAAD
:1004880003F34FEA154E3843010CB3FBFEF71FFA8E
:1004980085F80EFB173341EA034107FB08F38B424B
:1004A80004FA02F407D9691807F1FF3C2FD28B42EE
:1004B8002DD9023F2944CB1A81B2B3FBFEF00EFBC3
:1004C800103341EA034100FB08F38B4207D969184E
:1004D80000F1FF3C17D28B4215D902382944C91ABA
:1004E80040EA07473BE73746304609E70746E7E66D
:1004F8001846FBE64145ABD2B8EB020A69EB0E029F
:1005080001381346A4E76046E9E7184695E76746C9
:10051800D1E781467CE702382C4447E7ACF1020C6E
:100528002B442FE7384608E73746E9E6704700BF0F
:10053800034613F8012B002AFBD1181A013870471B
:1005480010B504460E4B18784FF47A73B3FBF0F3EA
:100558000C4A1068B0FBF3F000F05CFC68B90F2C93
:1005680001D901200AE0002221464FF0FF3000F0B7
:1005780011FC034B5C60002000E0012010BD00BFAF
:10058800000000200800002008B5032000F0F0FB60
:100598000020FFF7D5FF02F0DDFB002008BD0000BA
:1005A800034A1168034B1B780B441360704700BF64
:1005B8002800002000000020014B1868704700BF89
:1005C8002800002038B50446FFF7F6FF0546B4F1C9
:1005D800FF3F02D0044B1B781C44FFF7EDFF401B84
:1005E800A042FAD338BD00BF00000020002800F068
:1005F800A18038B5044690F82030D3B1226813683A
:1006080023F002031360FFF7D7FF054623685A68F3
:1006180012F0020F10D0FFF7CFFF401B0A28F5D9C0
:10062800636A43F400336362052384F820300120B1
:1006380038BD02F0A7FBE1E71A6842F001021A6030
:10064800FFF7BAFF054623685A6812F0010F0DD16B
:10065800FFF7B2FF401B0A28F5D9636A43F4003359
:100668006362052384F820300120E1E7227E012A15
:100678003DD01A6822F080021A60637E012B3BD0BD
:100688002268136823F040031360A37E012B39D03E
:100698002268136823F020031360E37E012B37D010
:1006A8002268136843F010031360237F012B35D0B1
:1006B8002268136823F008031360637F012B33D08B
:1006C8002268136823F004031360A368E2681343E5
:1006D80022691343626913436268013A216813432C
:1006E800CB6100206062012384F82030A0E71A68FB
:1006F80042F080021A60C0E72268136843F04003A2
:100708001360C2E72268136843F020031360C4E74C
:100718002268136823F010031360C6E72268136881
:1007280043F008031360C8E72268136843F0040322
:100738001360CAE701207047036890F82020013A47
:10074800D2B2012A05D9436A43F4802343620120C7
:10075800704770B4434A934200D0434BD3F8002209
:1007680042F00102C3F800223F4A934242D04A694C
:1007780002F01F02012000FA02F2D3F81C42D04313
:100788000440C3F81C42CC69ACB9D3F80C4204400D
:10079800C3F80C42CE688D884C6945EA0645483452
:1007A80043F834508E680D884C6945EA064548344C
:1007B80003EBC4046560CC69012C29D08C69002C3A
:1007C8003DD1D3F804420440C3F804420C69002C1C
:1007D8003BD1D3F814422040C3F81402096A012916
:1007E80039D0D3F8002222F00102C3F800220020F9
:1007F80070BC7047D3F8002222F47C52C3F8002260
:10080800D3F80022486A42EA0022C3F80022AEE781
:10081800D3F80C421443C3F80C420E688D884C6917
:1008280045EA0645483443F834508E688D894C694A
:1008380045EA0645483403EBC4046560BEE7D3F8CF
:1008480004421443C3F80442C0E7D3F81402104327
:10085800C3F81402C2E7D3F81C120A43C3F81C22D7
:10086800BFE700BF003400400064004038B590F88E
:100878002030DBB2012B05D0436A43F400234362E6
:10088800012038BD0446022380F82030026813682E
:1008980023F001031360FFF78FFE054623685B68AA
:1008A80013F0010F0DD0FFF787FE401B0A28F5D97A
:1008B800636A43F400336362052384F8203001201F
:1008C800DFE700206062DCE770B490F8204005683C
:1008D800AD68013CE4B2012C06D9436A43F4802395
:1008E8004362012070BC704715F0E05F5BD0C5F330
:1008F8000165022D3ED80124AC401C608B68002B9A
:100908003ED10E68CB68046843EA465605F11803E1
:100918001B01E65003680C6905F1180603EB061382
:100928005C600B7D012B36D0D17993791B0443EAA7
:100938000163517943EA01231479016823432C01A7
:100948002144C1F88C31D17893781B0443EA0163C0
:10095800517843EA0123117802680B432244C2F814
:100968008831026818352D01535943F0010353515A
:100978000020B7E7436A43F4000343620120B1E76C
:100988004C6843EAC403CC680668234305F118049D
:1009980024013351BEE7036803EB0613596841F499
:1009A80080715960C0E7436A43F400134362012031
:1009B80098E730B490F82040013CE4B2012C06D905
:1009C800436A43F480234362012030BC7047002906
:1009D8006FD10468E46814F0030F64D0056801F16E
:1009E8001B0424012C5904F004049460002C6BD1DE
:1009F800056801F11B0424012C59640D1460056875
:100A080001F11B0424012D5905F00205D560056884
:100A180025446D6805F00F051561056825446D6866
:100A2800C5F30725956105682C446468240C546156
:100A380004680A011444D4F8B8411C7004681444CA
:100A4800D4F8B841C4F307245C7004681444D4F89B
:100A5800B841C4F307449C7004681444D4F8B841FE
:100A6800240EDC7004681444D4F8BC411C7104687A
:100A78001444D4F8BC41C4F307245C7104681444DA
:100A8800D4F8BC41C4F307449C7104682244D2F8EA
:100A9800BC21120EDA71F9B90268D36843F0200359
:100AA800D360002091E7436A43F4001343620120B6
:100AB8008BE70468246914F0030F8FD1436A43F469
:100AC80000134362012080E7056801F11B0424013B
:100AD8002C59E408546092E70268136943F0200334
:100AE8001361002071E790F82030013BDBB2012B45
:100AF80005D9436A43F480234362012070470268A2
:100B08005369194351610020704770477047704717
:100B180070477047704770472DE9F84F05460368DE
:100B28005C695F689E68D3F80C90D3F81080D3F89E
:100B380018A014F0010F5AD016F0010F17D0012297
:100B48009A6016F0020F08D116F0040F30D116F093
:100B5800080F07D04FF4805B0BE001F017FF4FF050
:100B6800000B06E0FFF7D1FF4FF0000B01E04FF05C
:100B7800000B16F4807F0BD02B684FF480729A60BC
:100B880016F4007F17D116F4806F18D04BF4005B71
:100B980016F4803F2DD02B684FF480329A6016F4FB
:100BA800003F16D116F4802F17D04BF4004B20E0ED
:100BB8004FF4006BDDE7284601F0ECFEE8E716F499
:100BC800006F02D04BF4804BE2E72846FFF79EFF08
:100BD800DEE7284601F0E2FE0BE016F4002F02D013
:100BE8004BF4803B05E02846FFF791FF01E04FF00A
:100BF800000B14F0080F07D019F0100F04D04BF4B5
:100C0800007B2B681022DA6014F0040F02D019F070
:100C1800080F60D114F0020F04D02B68DB6813F0C2
:100C2800030F5FD114F0400F07D018F0100F04D055
:100C38004BF4806B2B6810221A6114F0200F02D03D
:100C480018F0080F52D114F0100F04D02B681B694C
:100C580013F0030F51D114F4003F02D017F0100F16
:100C68004FD114F4803F02D017F0080F50D114F47C
:100C7800004F67D017F0040F61D014F4807F04D0C0
:100C88001AF0010F01D04BF0010B14F4007F04D0CF
:100C98001AF0020F01D04BF0020B14F4806F04D04D
:100CA8001AF0040F01D04BF0040B14F4006F46D077
:100CB8001AF0700A43D0BAF1300F48D02FD9BAF1E0
:100CC800500F47D0BAF1600F47D0BAF1400F31D179
:100CD8004BF0400B2EE02B680822DA602846FFF71D
:100CE80017FF97E7284601F061FF9BE72B6808226A
:100CF8001A612846FFF70DFFA5E7284601F072FFA5
:100D0800A9E72B6810225A602846FFF703FFA8E7D7
:100D18002B6808225A602846FFF7FDFEA7E7BAF1BC
:100D2800100F05D0BAF1200F04D14BF0100B01E0E1
:100D38004BF0080B2A68936923F0700393612B68C2
:100D480004225A60BBF1000F0AD1BDE8F88F4BF0BE
:100D5800200BEFE74BF0800BECE74BF4807BE9E7E7
:100D68006B6A43EA0B036B62284601F01BFEECE753
:100D78000649CB6823F4E0631B041B0C000200F453
:100D8800E0600343024A1A43CA60704700ED00E07E
:100D98000000FA0530B4154BDB68C3F30223C3F136
:100DA8000704042C28BF04241D1D062D14D9033B59
:100DB8004FF0FF3505FA04F421EA0401994005FAD9
:100DC80003F322EA03031943002807DB0901C9B228
:100DD800074B195430BC70470023E9E700F00F00B7
:100DE8000901C9B2034B1954F4E700BF00ED00E054
:100DF80000E400E014ED00E0002807DB00F01F022B
:100E0800400901239340024A42F82030704700BF4E
:100E180000E100E00138B0F1807F0AD2064B58604B
:100E2800064AF02182F823100020986007221A60F1
:100E380070470120704700BF10E000E000ED00E0BF
:100E4800037C012B75D00123037402680023C2F8C8
:100E5800C4300268C2F8C830816111F0010F6AD04D
:100E680010B40268D2F8C4404FF6FF732343C2F8A7
:100E7800C43011F0020F06D00268D2F8C43043F42F
:100E8800F813C2F8C43011F0040F06D00268D2F883
:100E9800C83043F00103C2F8C83011F0080F06D07B
:100EA8000268D2F8C83043F00203C2F8C83011F023
:100EB800100F06D00268D2F8C83043F00C03C2F80D
:100EC800C83011F0200F06D00268D2F8C83043F0BD
:100ED8001003C2F8C83011F0400F06D00268D2F8EB
:100EE800C83043F02003C2F8C83011F0800F06D094
:100EF8000268D2F8C83043F04003C2F8C83011F491
:100F0800807F06D00268D2F8C83043F08003C2F868
:100F1800C83011F4007F06D00268D2F8C83043F414
:100F2800F853C2F8C8300023037418465DF8044B20
:100F380070470220704711F0020F06D00268D2F8FD
:100F4800C43043F4F813C2F8C43011F0040F06D0CB
:100F58000268D2F8C83043F00103C2F8C83011F073
:100F6800080F06D00268D2F8C83043F00203C2F86E
:100F7800C83011F0100F06D00268D2F8C83043F01C
:100F88000C03C2F8C83011F0200F06D00268D2F85E
:100F9800C83043F01003C2F8C83011F0400F06D033
:100FA8000268D2F8C83043F02003C2F8C83011F004
:100FB800800F06D00268D2F8C83043F04003C2F868
:100FC800C83011F4807F06D00268D2F8C83043F0E8
:100FD8008003C2F8C83011F4007F06D00268D2F846
:100FE800C83043F4F853C2F8C830002303741846D5
:100FF80070470000002800F0BA8070B582B004463F
:101008000E46437C1BB303236374002300932268BA
:10101800D2F8303443F08073C2F830342368D3F800
:10102800303403F080730093009BFFF7C5FA054640
:101038002368D3F80C2412F4805F0BD1FFF7BCFAB5
:10104800401BB0F57A7FF3D9032002B070BD01F0E0
:10105800EFFED8E7D3F83014464A0A40C3F83024E4
:101068002168D1F8302430687368DB0243EA8003D2
:10107800B06843EA00431343C1F8303400230193B6
:101088002268D2F8303443F00103C2F830342368C0
:10109800D3F8303403F001030193019BFFF78CFA76
:1010A80005462368D3F80C2412F4807F07D1FFF794
:1010B80083FA401BB0F57A7FF3D90320C5E7D3F84C
:1010C800A02042F00602C3F8A0202268D2F894308B
:1010D80023F00303C2F894302268D2F89430616890
:1010E8000B4343F00103C2F894302268D2F8A430CD
:1010F80023F00303C2F8A4302268D2F8A430E168D0
:101108000B43C2F8A4302268936823F0FF0393606E
:1011180022689368A1680B439360726802B9012240
:10112800154B03FB02F3B26802F0030293403168E7
:1011380046F2A81202FB01F2B3FBF2F32168D1F8E0
:10114800182422F03F02C1F818242168D1F8182485
:101158001343C1F8183423680020C3F8C400236877
:10116800C3F8C800A0616061012363746DE70120C2
:10117800704700BF0386FCFF00093D00037C012B7C
:1011880031D030B4012303740268946E174B2340A6
:1011980093660468A26E0B684D682B438D682B43D9
:1011A800CD682B430D692B434D692B438D692B4328
:1011B800CD692B430D6A2B434D6A2B438D6A2B4314
:1011C800CD6A2B431343A3660268936E23F0020390
:1011D80093660268936E096B0B439366002303744E
:1011E800184630BC70470220704700BFFF80F0FEF1
:1011F800037C012B0ED0012303740268D36A23F009
:101208001F03D3620268D36A1943D16200230374AF
:101218001846704702207047037C012B3ED030B43B
:10122800012303740B684A68934238BF1346046865
:10123800D4F8982002F0FC22C4F898200468D4F866
:10124800982043EA03431343C4F898300268D2F85D
:101258009C3003F40043C2F89C300468D4F89C2006
:101268000B69CD6843EA05438D6843EA0563134378
:10127800C4F89C300268D2F8A43023F47F43C2F843
:10128800A4300268D2F8A430496943EA0123C2F8BD
:10129800A43000230374184630BC704702207047FE
:1012A800037C012B71D030B4012303740268936866
:1012B80023F47F439360026893680C6843EA04232D
:1012C80093600268936F9BB293670268936F4C6850
:1012D80043EA044393670468A26F2D4B1A40A26740
:1012E8000468A26F8D682A43A2670468E26F1A40F7
:1012F800E2670468E26FCD682A43E2670468D4F8BD
:1013080080201A40C4F880200468D4F880200D6931
:101318002A43C4F880200468D4F884201A40C4F80A
:1013280084200468D4F884204D692A43C4F88420B2
:101338000468D4F8842022F08072C4F884200468F9
:10134800D4F884208D692A43C4F884200468D4F82A
:1013580088201A40C4F888200468D4F88820CD6909
:101368002A43C4F888200468D4F88C201340C4F8B1
:101378008C300268D2F88C30096A0B43C2F88C3082
:1013880000230374184630BC70470220704700BF22
:101398000000FFFF037C012B13D0012303740268B4
:1013A800D2F81C3423F0C063C2F81C340268D2F8A7
:1013B8001C3443EA4161C2F81C1400230374184624
:1013C800704702207047000000230F2B00F2E180D5
:1013D800F0B583B039E0092200E00022B2403A4378
:1013E80002346C4E46F824206B4A1468EA4302EA39
:1013F80004064F6817F4803F01D045EA0406664C9E
:101408002660646802EA04064F6817F4003F01D0BA
:1014180045EA0406604C6660A46802EA04064F6860
:1014280017F4801F01D045EA04065B4CA660E46807
:1014380022404E6816F4001F01D045EA0402564CBB
:10144800E26001330F2B00F2A28001229A400C685F
:1014580004EA0205AA42F4D14C68661E112C18BF92
:10146800012E01D9122C12D186685F000324BC40DA
:1014780026EA0406CC68BC4034438460466826EA01
:1014880002064C68C4F300129A4032434260C268B4
:101498005F000326BE40F64332408C68BC401443CC
:1014A800C4604A68122A18BF022A13D1DC0808341B
:1014B80050F824E003F007024FEA820C0F2202FAE8
:1014C8000CF22EEA020E0A6902FA0CF242EA0E0245
:1014D80040F82420026816404A6802F00302BA4025
:1014E800324302604A6812F0805FAAD02B4A546CDB
:1014F80044F480445464526C02F480420192019A8C
:101508009C08A61C234A52F8267003F00302960092
:101518000F22B24027EA0207214A90423FF45DAF0A
:1015280002F58062904222D002F58062904220D07B
:1015380002F5806290421ED002F5806290421CD073
:1015480002F5806290421AD002F58062904218D06B
:1015580002F58062904216D002F58062904214D063
:1015680002F5806290423FF436AF0A2236E7012244
:1015780034E7022232E7032230E704222EE705226D
:101588002CE706222AE7072228E7082226E703B0E5
:10159800F0BD704700380140003C0140003802406F
:1015A8000000024010B582B01B4B1A6C42F080520A
:1015B8001A641B6C03F080530193019B174A13684C
:1015C80043F480331360FEF7F7FF0446134B5B6860
:1015D80013F4803F08D1FEF7EFFF001BB0F57A7FC8
:1015E800F4D9032002B010BD0C4A136843F4003349
:1015F8001360FEF7E1FF0446084B5B6813F4003FF5
:1016080007D1FEF7D9FF001BB0F57A7FF4D9032084
:10161800E8E70020E6E700BF00380240007000401D
:10162800002800F0128270B582B00446036813F0F7
:10163800010F29D0A24B9B6803F00C03042B1AD08E
:101648009F4B9B6803F00C03082B0FD06368B3F51E
:10165800803F40D0002B54D1994B1A6822F4803235
:101668001A601A6822F480221A6039E0944B5B6889
:1016780013F4800FEAD0924B1B6813F4003F03D099
:101688006368002B00F0E381236813F0020F75D024
:101698008B4B9B6813F00C0F5ED0894B9B6803F053
:1016A8000C03082B53D0E368002B00F08A80844A8F
:1016B800136843F001031360FEF77EFF0546804B75
:1016C8001B6813F0020F73D1FEF776FF401B022848
:1016D800F5D90320BEE17A4A136843F480331360D6
:1016E80063682BB3FEF768FF0546754B1B6813F458
:1016F800003FC9D1FEF760FF401B6428F5D90320DD
:10170800A8E1B3F5A02F09D06D4B1A6822F48032F6
:101718001A601A6822F480221A60E1E7684B1A6896
:1017280042F480221A601A6842F480321A60D7E7BD
:10173800FEF742FF0546624B1B6813F4003FA3D037
:10174800FEF73AFF401B6428F5D9032082E15C4B81
:101758005B6813F4800FA6D1594B1B6813F0020F76
:1017680004D0E368012B01D0012073E1544A1368C7
:1017780023F0F803216943EAC1031360236813F0D7
:10178800080F46D0636983B34D4A536F43F0010392
:101798005367FEF711FF0546494B5B6F13F0020FC5
:1017A80037D1FEF709FF401B0228F5D9032051E184
:1017B800434A136823F0F803216943EAC10313601D
:1017C800DCE73F4A136823F001031360FEF7F4FED9
:1017D80005463B4B1B6813F0020FCFD0FEF7ECFE1B
:1017E800401B0228F5D9032034E1354A536F23F012
:1017F80001035367FEF7E0FE0546314B5B6F13F0BC
:10180800020F06D0FEF7D8FE401B0228F5D90320A8
:1018180020E1236813F0040F7ED0294B1B6C13F0D2
:10182800805F1ED1264B1A6C42F080521A641B6CE2
:1018380003F080530193019B0125224B1B6813F48D
:10184800807F10D0A368012B21D0002B3CD11C4BEA
:101858001A6F22F001021A671A6F22F004021A673F
:101868001AE00025E9E7174A136843F48073136008
:10187800FEF7A2FE0646134B1B6813F4807FE1D1E6
:10188800FEF79AFE801B6428F5D90320E2E00C4A93
:10189800136F43F001031367A3685BB3FEF78CFE75
:1018A8000646074B1B6F13F0020F34D1FEF784FE78
:1018B800801B41F288339842F3D90320CAE000BF65
:1018C8000038024000700040052B09D0644B1A6FA5
:1018D80022F001021A671A6F22F004021A67DBE786
:1018E8005F4B1A6F42F004021A671A6F42F0010246
:1018F8001A67D1E7FEF760FE0646594B1B6F13F0D7
:10190800020F08D0FEF758FE801B41F28833984238
:10191800F3D903209EE0FDB9A369002B00F099805C
:101928004F4A926802F00C02082A59D0022B19D0AB
:101938004B4A136823F080731360FEF73DFE04469C
:10194800474B1B6813F0007F48D0FEF735FE001B9D
:101958000228F5D903207DE0414A136C23F0805317
:101968001364D9E73E4A136823F080731360FEF7C7
:1019780023FE05463A4B1B6813F0007F06D0FEF79E
:101988001BFE401B0228F5D9032063E0E369226AA5
:101998001343626A43EA8213A26A5208013A43EA8D
:1019A8000243E26A43EA0263226B43EA02732C4A67
:1019B8005360136843F080731360FEF7FDFD04461F
:1019C800274B1B6813F0007F06D1FEF7F5FD001BBF
:1019D8000228F5D903203DE000203BE0002039E053
:1019E8001F4A5268012B37D002F48003E1698B4209
:1019F80001D001202EE002F03F03216A8B4201D082
:101A0800012027E0616A47F6C0731340B3EB811FDA
:101A180001D001201EE002F44031A36A5B08013BBB
:101A2800B1EB034F01D0012014E002F07063E16ACA
:101A3800B3EB016F01D001200CE002F0E042236B10
:101A4800B2EB037F0AD0012004E001207047012097
:101A580000E0002002B070BD0120FBE70020F9E79C
:101A680000380240264B9B6803F00C03042B44D03B
:101A7800082B01D0234870472DE9F04B204B5A68BA
:101A880002F03F025B6813F4800F13D01C4B5968B7
:101A9800C1F3881100231C48A1FB0001FEF7C8FB15
:101AA800174B5B68C3F3014301335B00B0FBF3F0F2
:101AB800BDE8F08B124B5B68C3F388131E46002702
:101AC8005C010025E41A65EB0705A90141EA946168
:101AD800A001001B61EB0501CB0043EA5073C40071
:101AE800A01943EB07018B0243EA90538402204676
:101AF80019460023FEF79CFBD2E70348704700BF56
:101B0800003802400024F40040787D01002800F0ED
:101B1800A38070B50446524B1B6803F00F038B4239
:101B28000CD24F4A136823F00F030B43136013685A
:101B380003F00F038B4201D0012070BD236813F01E
:101B4800020F17D013F0040F04D0464A936843F4E9
:101B5800E0539360236813F0080F04D0414A936858
:101B680043F4604393603F4A936823F0F003A0680E
:101B7800034393600D46236813F0010F31D0636867
:101B8800012B20D0022B25D0364A126812F0020F02
:101B980064D034498A6822F0030213438B60FEF74D
:101BA8000BFD06462F4B9B6803F00C036268B3EBF2
:101BB800820F16D0FEF700FD801B41F28833984251
:101BC800F0D90320B9E7274A126812F4003FE0D1A0
:101BD8000120B2E7234A126812F0007FD9D1012010
:101BE800ABE71F4B1B6803F00F03AB420CD91C4A31
:101BF800136823F00F032B431360136803F00F03DC
:101C0800AB4201D0012098E7236813F0040F06D0F7
:101C1800144A936823F4E053E1680B439360236804
:101C280013F0080F07D00F4A936823F46043216923
:101C380043EAC1039360FFF715FF0A4B9B68C3F3A0
:101C48000313094AD35CD840084B1860084B18683E
:101C5800FEF776FC002070E70120704701206CE752
:101C6800003C02400038024008300008080000200C
:101C780004000020014B1868704700BF08000020CE
:101C880008B5FFF7F7FF044B9B68C3F38223034AA9
:101C9800D35CD84008BD00BF0038024018300008A7
:101CA80008B5FFF7E7FF044B9B68C3F34233034AC9
:101CB800D35CD84008BD00BF003802401830000887
:101CC800F0B583B00446036813F0010F0CD0B54B90
:101CD8009A6822F400029A609A68416B0A439A60F3
:101CE800436BC3B1002600E00026236813F4002FDD
:101CF80015D0AC4AD2F88C3023F44013E16B0B4377
:101D0800C2F88C30E36BB3F5801F06D0002B00F0CF
:101D18004581002504E00126E7E70126F6E70025CE
:101D2800236813F4801F0FD09E4AD2F88C3023F416
:101D38004003216C0B43C2F88C30236CB3F5800F41
:101D480000F02E8103B90125236813F0807F00D0AD
:101D5800012613F0200F40F02781236813F0100F9D
:101D68000CD0904BD3F88C2022F08072C3F88C20D2
:101D7800D3F88C20A16B0A43C3F88C20236813F492
:101D8800804F08D0874AD2F8903023F44033616EF0
:101D98000B43C2F89030236813F4004F08D0814AEF
:101DA800D2F8903023F44023A16E0B43C2F8903050
:101DB800236813F4803F08D07A4AD2F8903023F48D
:101DC8004013E16E0B43C2F89030236813F4003FD0
:101DD80008D0744AD2F8903023F44003216F0B43A3
:101DE800C2F89030236813F0400F08D06D4AD2F83B
:101DF800903023F00303616C0B43C2F890302368E2
:101E080013F0800F08D0674AD2F8903023F00C0303
:101E1800A16C0B43C2F89030236813F4807F08D07C
:101E2800604AD2F8903023F03003E16C0B43C2F8DB
:101E38009030236813F4007F08D05A4AD2F89030C3
:101E480023F0C003216D0B43C2F89030236813F4CC
:101E5800806F08D0534AD2F8903023F44073616DF4
:101E68000B43C2F89030236813F4006F08D04D4A32
:101E7800D2F8903023F44063A16D0B43C2F8903040
:101E8800236813F4805F08D0464AD2F8903023F4D0
:101E98004053E16D0B43C2F89030236813F4005FA0
:101EA80008D0404AD2F8903023F44043216E0B43C7
:101EB800C2F89030236813F4800F08D0394AD2F85A
:101EC800903023F08063A16F0B43C2F890302368F1
:101ED80013F4001F0DD0334AD2F8903023F000637A
:101EE800E16F0B43C2F89030E36FB3F1006F00F07D
:101EF800C180236813F0080F00D0012513F4802F48
:101F080008D0284AD2F8903023F04073616F0B4311
:101F1800C2F89030236813F4000F09D0214AD2F890
:101F2800903023F08053D4F880100B43C2F89030DF
:101F3800236813F0806F09D01A4AD2F8903023F042
:101F48000053D4F884100B43C2F89030236813F080
:101F5800006F09D0134AD2F88C3023F00073D4F8FC
:101F680088100B43C2F88C30236813F0805F09D0C7
:101F78000C4AD2F88C3023F08063D4F88C100B43D1
:101F8800C2F88C30002E77D12368B3F1007F73D06C
:101F9800002D40F00481002003B0F0BD0125BFE60C
:101FA8000126CFE600380240B74B1A6C42F0805247
:101FB8001A641B6C03F080530193019BB34A1368A6
:101FC80043F480731360FEF7F7FA0746AF4B1B68BC
:101FD80013F4807F06D1FEF7EFFAC01B6428F5D909
:101FE8000320D9E7A84B1B6F13F4407315D0226B5D
:101FF80002F440729A4210D0A34B1A6F22F4407236
:10200800196F41F480311967196F21F4803119670C
:102018001A671B6F13F0010F12D1236B03F4407280
:10202800B2F5407F1DD0984A936823F4F813936063
:1020380095490B6F226BC2F30B0213430B678CE6B7
:10204800FEF7BAFA0746904B1B6F13F0020FE4D164
:10205800FEF7B2FAC01B41F288339842F3D9032045
:102068009AE78948826822F4F812894919400A4394
:102078008260DDE701253CE7834A136823F080632B
:102088001360FEF799FA06467F4B1B6813F0006F42
:1020980006D0FEF791FA801B6428F5D903207BE768
:1020A800236813F0010F13D0636B8BB9764AD2F80B
:1020B8008430D2F88410606803F4403343EA801314
:1020C80001F070610B43A16843EA0173C2F88430E0
:1020D800236813F4002F03D0E26BB2F5801F06D0FB
:1020E80013F4801F1ED0236CB3F5800F1AD1664AF3
:1020F800D2F88430D2F88410606803F4403343EA9D
:102108008013E06843EA006301F0E0410B43C2F842
:102118008430D2F88C3023F01F03616A01390B43F5
:10212800C2F88C30236813F0807F11D0564AD2F859
:102138008400D2F88410666823691B0443EA861376
:1021480000F07060034301F0E0410B43C2F88430B3
:10215800236813F0007F0DD0626823691B0443EAEB
:102168008213E26843EA0263A26843EA0273464ABA
:10217800C2F88430444A136843F080631360FEF762
:102188001BFA0646404B1B6813F0006F7FF400AF44
:10219800FEF712FA801B6428F4D90320FCE63A4AB9
:1021A800136823F080531360FEF706FA0546364B92
:1021B8001B6813F0005F06D0FEF7FEF9401B642889
:1021C800F5D90320E8E6236813F4002F01D0E26B69
:1021D80022B113F4801F1DD0236CDBB92A4AD2F830
:1021E8008830D2F88810606903F4403343EA8013DA
:1021F800A06943EA006301F0E0410B43C2F888306C
:10220800D2F88C3023F4F853A16A013943EA012348
:10221800C2F88C30236813F4001F03D0E36FB3F1C6
:10222800006F37D0236813F0080F19D0164AD2F878
:102238008810D2F88830606903F4403343EA801389
:1022480001F070610B43E16943EA0173C2F8883019
:10225800D2F88C3023F44033E16A0B43C2F88C3057
:10226800094A136843F080531360FEF7A5F9044642
:10227800054B1B6813F0005F1FD1FEF79DF9001B8B
:102288006428F5D9032087E6003802400070004032
:10229800FFFCFF0F0A4AD2F88800D2F88810656957
:1022A800236A1B0443EA851300F07060034301F0BE
:1022B800E0410B43C2F88830B4E700206CE600BF69
:1022C8000038024010B50446836802691343426926
:1022D8001343C269134301680868994A02401343CB
:1022E8000B602268536823F44053E1680B43536042
:1022F800A269236A1A4321688B6823F43063134365
:102308008B6023688F4A934218D08F4A934228D013
:102318008E4A93423DD08E4A934250D08D4A934282
:1023280062D08D4A934277D08C4A934200F08C80D9
:102338008B4A934200F0A0801023B6E0894BD3F873
:10234800903003F00303032B09D8DFE803F00204FD
:10235800AD060123A9E00423A7E00823A5E0102384
:10236800A3E0804BD3F8903003F00C030C2B0ED86D
:10237800DFE803F0070D0D0D090D0D0DA90D0D0D6D
:102388000B00002391E004238FE008238DE0102345
:102398008BE0744BD3F8903003F03003102B0AD045
:1023A80006D9202B00F09180302B06D108237CE041
:1023B8001BB9002379E0042377E0102375E0694B0B
:1023C800D3F8903003F0C003402B09D005D9802BF7
:1023D8007DD0C02B06D1082367E01BB9002364E039
:1023E800042362E0102360E05E4BD3F8903003F4DE
:1023F8004073B3F5807F0BD007D9B3F5007F68D061
:10240800B3F5407F06D108234FE01BB900234CE009
:1024180004234AE0102348E0524BD3F8903003F4E9
:102428004063B3F5806F0BD007D9B3F5006F52D076
:10243800B3F5406F06D1082337E01BB9012334E018
:10244800042332E0102330E0464BD3F8903003F4F5
:102458004053B3F5805F0BD007D9B3F5005F3CD08C
:10246800B3F5405F06D108231FE01BB900231CE029
:1024780004231AE0102318E03A4BD3F8903003F401
:102488004043B3F5804F0BD007D9B3F5004F26D0A2
:10249800B3F5404F06D1082307E01BB9002304E039
:1024A800042302E0102300E00223E269B2F5004FA2
:1024B80017D0082B00F2B380DFE803F0768B95B1D4
:1024C8009EB1B1B1A8000223EFE70223EDE7022392
:1024D800EBE70223E9E70223E7E70223E5E7022324
:1024E800E3E7082B5DD8DFE803F0051F3F5C485C95
:1024F8005C5C5300FFF7C4FB6268530803EB4003BE
:10250800B3FBF2F39BB20020A3F110014FF6EF7278
:10251800914200F287809AB222F00F02C3F342037D
:1025280013432268D36050E0FFF7BAFB6268530890
:1025380003EB4003B3FBF2F39BB20020E4E700BFD8
:10254800F369FFEF001001400044004000480040DC
:10255800004C00400050004000140140007800404A
:10256800007C0040003802406268304B03EB5203A5
:10257800B3FBF2F39BB20020C6E7FFF773FA626879
:10258800530803EB4003B3FBF2F39BB20020BBE715
:102598006268530803F58033B3FBF2F39BB2002063
:1025A800B2E701200023AFE7FFF76AFB626800EBA0
:1025B8005203B3FBF2F39BB20020A3F110014FF6D4
:1025C800EF72914230D82268D36000232366636695
:1025D80010BDFFF765FB626800EB5203B3FBF2F333
:1025E8009BB20020E9E76268114B03EB5203B3FB8F
:1025F800F2F39BB20020E0E7FFF734FA626800EBE1
:102608005203B3FBF2F39BB20020D6E7626853088B
:1026180003F50043B3FBF2F39BB20020CDE70120A2
:102628000023CAE70120D0E70120CEE70048E801EF
:102638000024F400436A13F0010F06D002685368BF
:1026480023F40033816A0B435360436A13F0020F8B
:1026580006D00268536823F48033C16A0B43536081
:10266800436A13F0040F06D00268536823F48023EA
:10267800016B0B435360436A13F0080F06D00268DE
:10268800536823F40043416B0B435360436A13F0D0
:10269800100F06D00268936823F48053816B0B43B4
:1026A8009360436A13F0200F06D00268936823F4FE
:1026B8000053C16B0B439360436A13F0400F0AD079
:1026C8000268536823F48013016C0B435360036C56
:1026D800B3F5801F0BD0436A13F0800F06D0026851
:1026E800536823F40023816C0B43536070470268DE
:1026F800536823F4C003416C0B435360EBE72DE9A7
:10270800F04104460F4616469846069D2368DB6945
:1027180037EA03030CBF01230023B3423AD1B5F1D2
:10272800FF3FF3D0FDF748FFA0EB0800A8421FD8F1
:10273800F5B123681A6812F0040FE7D0DA6912F4C9
:10274800006FE3D04FF400621A622268136823F422
:10275800D07313602268936823F0010393602023E9
:102768006367A367E367002384F87030032012E0EF
:102778002268136823F4D07313602268936823F0E7
:102788000103936020236367A367002384F87030F4
:10279800032000E00020BDE8F0812DE9F04182B07F
:1027A8001E46436F202B59D104460D469046B2FA77
:1027B80082F35B09002908BF0123002B53D190F84D
:1027C8007030012B51D0012380F870300023C3678B
:1027D80021234367FDF7F0FE0746A4F85080A4F8CC
:1027E8005280A368B3F5805F05D04FF0000800233E
:1027F80084F8703013E0236913B14FF00008F6E74E
:10280800A8460025F3E738F8023B2268C3F308031B
:102818009362B4F85230013B9BB2A4F85230B4F83A
:1028280052309BB273B100963B460022802120466D
:10283800FFF765FFD8B9002DE5D015F8012B2368FF
:102848009A62E6E700963B46002240212046FFF7C1
:1028580056FF034668B92022626700E00223184643
:1028680002B0BDE8F0810123F9E70223F7E703236B
:10287800F5E70323F3E730B583B004460023C367C5
:10288800FDF79AFE054623681B6813F0080F0CD164
:1028980023681B6813F0040F15D120236367A3670F
:1028A800002084F8700003B030BD6FF07E430093C1
:1028B800034600224FF400112046FFF720FF0028AE
:1028C800E6D00320EFE76FF07E4300932B4600220B
:1028D8004FF480012046FFF712FF0028DDD00320C7
:1028E800E1E768B310B50446436F03B32423636775
:1028F8002268136823F0010313602046FFF7E2FC07
:10290800012813D0636ABBB92268536823F4904343
:1029180053602268936823F02A039360226813683F
:1029280043F0010313602046FFF7A5FF10BD80F8B0
:10293800703000F093FAD9E72046FFF77BFEE3E713
:102948000120704782B00A4B1A6B42F080021A636A
:102958001A6B02F080020092009A1A6B42F0010290
:102968001A631B6B03F001030193019B02B07047CC
:102978000038024008B50A230D2202490248FFF731
:102988000CFF08BD203000084800002008B5FFF7FC
:10299800F1FF08BD08B5FFF7EDFF08BD08B5FFF763
:1029A800E9FF08BD08B50A230B2202490248FFF7D0
:1029B800F4FE08BD303000084800002008B50A239E
:1029C8000F2202490248FFF7E8FEFEE73C30000804
:1029D8004800002008B50D480D4B03600C234360E8
:1029E80000238360C3604FF4602202614FF48012B9
:1029F80042610376437683760122C2760377437772
:102A0800FDF7F4FD00B908BDFFF7D8FFC8000020A6
:102A18000064004008B50B480B4B03604FF4E133EA
:102A2800436000238360C36003610C2242618361B9
:102A3800C36103624362FFF754FF00B908BDFFF7A3
:102A4800BDFF00BF480000200010014010B5A0B035
:102A580000241F942422214614A800F0BDFA0E94E5
:102A68000F9410941194129413943422214601A8BF
:102A780000F0B2FA3148324B0360446004238360AB
:102A8800C46014231D9301231E931DA9FEF7B2FAF7
:102A9800002845D101231493002315931693179307
:102AA800189319931A931B931C9314A92348FEF7A0
:102AB800F7FB002836D11C230E9321230F930F23F5
:102AC8001093192311930023129313930EA91B48F3
:102AD800FEF7A2FB40BB04211848FEF789FB28BB80
:102AE80042F210711548FEF755FC08BB0021134847
:102AF800FEF7A6F9F0B90023019302930393049318
:102B0800059306930793089309930A930B930C93E1
:102B18000D9301A90948FEF731FB68B920B010BD33
:102B2800FFF74CFFFFF74AFFFFF748FFFFF746FFA5
:102B3800FFF744FFFFF742FFFFF740FF2C0000209C
:102B4800006C014000B58BB0012208920023059368
:102B580004930093019302930393069307926946A3
:102B68000448FDF7E9FD10B90BB05DF804FBFFF769
:102B780025FF00BFC800002000B589B008230693D0
:102B880040F25D63029300230493059301AB054A69
:102B980002A90548FDF798FE10B909B05DF804FBD5
:102BA800FFF70CFF4C300008C800002000B58BB0C0
:102BB80001AB03AA00210948FDF7FBFE58B901A89B
:102BC800FDF7B6FC0A2382B201A90548FFF7E5FD27
:102BD8000BB05DF804FBFFF7F1FE00BFC800002052
:102BE8004800002010B58AB001AB03AA00210C48A8
:102BF800FDF7DFFE88B90B4C0A2312220A4920464A
:102C0800FFF7CBFD01A8FDF793FC0A2382B201A9C7
:102C18002046FFF7C2FD0AB010BDFFF7CFFE00BF88
:102C2800C8000020480000205830000800B5B9B09E
:102C3800342200212BA800F0CFF9002126912791FA
:102C4800289129912A91902202A800F0C5F9284BD1
:102C58001A6C42F080521A641B6C03F08053009384
:102C6800009B244B1A6842F440421A601B6803F424
:102C780040430193019B01232B934FF480332C9302
:102C8800022331934FF480023292192233924FF487
:102C9800D8723492359336932BA8FEF7C1FCF0B95D
:102CA800FEF780FCE8B90F2326930223279300231D
:102CB80028934FF4A05329934FF480532A93072164
:102CC80026A8FEF723FF70B940230293002313932D
:102CD80002A8FEF7F5FF40B939B05DF804FBFFF72D
:102CE8006DFEFFF76BFEFFF769FEFFF767FE00BF9B
:102CF800003802400070004010B5FDF745FCFFF7B2
:102D080095FFFFF71FFEFFF765FEFFF71BFF0E4C51
:102D180048F213012046FDF7E6FE2046FDF7A6FD22
:102D2800FFF778FEFFF792FE0A232F22074908488B
:102D3800FFF733FDFFF720FFFFF71EFF4FF4FA7090
:102D4800FDF740FCF8E700BFC80000206C30000821
:102D58004800002082B00A4B1A6C42F080521A6474
:102D68001A6C02F080520092009A5A6C42F4804227
:102D78005A645B6C03F480430193019B02B0704773
:102D88000038024000B589B00023039304930593EB
:102D9800069307930268244B9A4202D009B05DF863
:102DA80004FB03F5EA331A6C42F000721A641A6CD9
:102DB80002F000720192019A1A6B42F001021A6342
:102DC8001B6B03F001030293029B4FF4C053039360
:102DD80002230493032306930923079303A91348A3
:102DE800FEF7F2FA002211461320FDF7D3FF132055
:102DF800FEF702F8002211461420FDF7CBFF14203D
:102E0800FDF7FAFF002211461520FDF7C3FF152034
:102E1800FDF7F2FF002211461620FDF7BBFF162032
:102E2800FDF7EAFFBAE700BF006400400000024077
:102E38000268094B9A4200D0704782B003F54C43B0
:102E48005A6C42F000625A645B6C03F000630193B1
:102E5800019B02B0704700BF006C014000B589B00B
:102E6800002303930493059306930793026803F1E1
:102E7800804303F588339A4202D009B05DF804FB19
:102E880003F594335A6C42F010025A645A6C02F0FB
:102E980010020192019A1A6B42F001021A631B6B2D
:102EA80003F001030293029B4FF4C06303930223D0
:102EB8000493032306930723079303A90148FEF706
:102EC80083FADAE7000002407047FEE7FEE7FEE714
:102ED800FEE770477047704708B5FDF761FB08BD0E
:102EE80008B50248FDF718FE08BD00BFC80000205D
:102EF80008B50248FDF710FE08BD00BFC800002055
:102F080008B50248FDF708FE08BD00BFC80000204C
:102F180008B50248FDF700FE08BD00BFC800002044
:102F2800054BD3F8882042F47002C3F888204FF08C
:102F380000629A60704700BF00ED00E0DFF834D00F
:102F4800002103E00C4B5B58435004310B480C4BF9
:102F580042189A42F6D30B4A02E0002342F8043B97
:102F6800094B9A42F9D3FFF7DBFF00F011F8FFF79E
:102F7800C3FE704700000820AC30000800000020A5
:102F88000C0000200C000020F0000020FEE70000EC
:102F980070B50D4E0D4CA41BA4100025A54209D1F7
:102FA8000B4E0C4C00F020F8A41BA4100025A542E1
:102FB80005D170BD56F8253098470135EEE756F82B
:102FC800253098470135F2E7A4300008A4300008FE
:102FD800A4300008A830000802440346934200D1F8
:102FE800704703F8011BF9E7F8B500BFF8BC08BC47
:102FF8009E467047F8B500BFF8BC08BC9E467047AF
:103008000000000000000000010203040607080990
:1030180000000000010203044D7367207472616EA2
:10302800736D69740A00000043414E204552524FA7
:1030380052210A004552524F52212048414E444CD9
:1030480045520A0043414E4275734D370000000057
:1030580072656365697665642043414E204D534728
:10306800210A00004772656574696E6773204672AD
:103078006F6D20746865204D3720696E20323136B7
:10308800204D687A20676C6F727920504F4C4C49FC
:043098004E470A0095
:08309C00CCD1FF7F0100000010
:0430A4001D02000801
:0430A800F901000822
:0C30AC0001000000100000000024F400EF
:0400000508002F457B
:00000001FF
