:020000040800F2
:100000000000022035190008F1180008F318000854
:10001000F5180008F7180008F9180008000000009B
:10002000000000000000000000000000FB180008B5
:10003000FD18000800000000FF1800080119000862
:100040008519000885190008851900088519000818
:100050008519000885190008851900088519000808
:1000600085190008851900088519000885190008F8
:1000700085190008851900088519000885190008E8
:1000800085190008851900088519000885190008D8
:1000900085190008851900088519000885190008C8
:1000A00085190008851900088519000885190008B8
:1000B00085190008851900088519000885190008A8
:1000C0008519000885190008851900088519000898
:1000D0008519000885190008091900088519000804
:1000E0008519000885190008851900088519000878
:1000F0008519000885190008851900088519000868
:100100008519000885190008851900088519000857
:100110008519000885190008851900088519000847
:100120008519000885190008851900088519000837
:100130008519000800000000000000008519000873
:100140008519000885190008851900088519000817
:100150008519000885190008851900088519000807
:1001600085190008851900088519000885190008F7
:10017000851900088519000885190008000000008D
:1001800000000000851900080000000000000000C9
:100190008519000800000000000000008519000813
:1001A00000000000000000000000000085190008A9
:1001B00085190008851900088519000885190008A7
:0401C0008519000895
:1001C40010B5054C237833B9044B13B10448AFF38D
:1001D40000800123237010BD1000002000000000E7
:1001E400E019000808B5034B1BB103490348AFF3FA
:1001F400008008BD0000000014000020E019000881
:1002040053B94AB9002908BF00281CBF4FF0FF3179
:100214004FF0FF3000F072B9ADF1080C6DE904CE77
:1002240000F006F8DDF804E0DDE9022304B07047CD
:100234002DE9F047089E04468846002B4BD18A429C
:10024400154667D9B2FA82F24AB1C2F1200701FA1F
:1002540002F320FA07F7954047EA030894404FEA6F
:10026400154E230CB8FBFEF71FFA85FC0EFB17880E
:1002740043EA084307FB0CF1994209D9EB1807F14B
:10028400FF3080F01B81994240F21881023F2B44D9
:100294005B1AA4B2B3FBFEF00EFB103344EA034432
:1002A40000FB0CFCA44509D92C1900F1FF3380F0A4
:1002B4000781A44540F2048102382C4440EA0740F7
:1002C400A4EB0C0400271EB1D4400023C6E900436C
:1002D4003946BDE8F0878B4209D9002E00F0EB8047
:1002E4000027C6E9000138463946BDE8F087B3FA6D
:1002F40083F7002F47D18B4202D3824200F2FA8067
:10030400841A61EB030301209846002EE0D0C6E96D
:100314000048DDE702B9FFDEB2FA82F2002A40F0BB
:100324008F80491B4FEA154E1FFA85F80127B1FB50
:10033400FEFC230C0EFB1C1143EA014308FB0CF1E9
:10034400994207D9EB180CF1FF3002D2994200F21E
:10035400CD808446591AA3B2B1FBFEF00EFB1014F3
:1003640043EA044408FB00F8A04507D92C1900F11E
:10037400FF3302D2A04500F2B6801846A4EB08046D
:1003840040EA0C409FE7C7F1200CBB4022FA0CFE68
:100394004EEA030E01FA07F420FA0CF521FA0CF3E5
:1003A4004FEA1E482543B3FBF8F92C0C08FB19331C
:1003B4001FFA8EFA44EA034309FB0AF49C4202FA48
:1003C40007F200FA07F10BD91EEB030309F1FF3022
:1003D40080F087809C4240F28480A9F10209734432
:1003E4001B1BADB2B3FBF8F008FB103345EA034422
:1003F40000FB0AFAA24508D91EEB040400F1FF33FE
:100404006BD2A24569D90238744440EA0940A0FB82
:100414000289A4EB0A044C45C2464B4654D351D03E
:10042400002E69D0B1EB0A0564EB030404FA0CFC5A
:10043400FD40FC404CEA0505C6E90054002747E7A7
:10044400C2F1200320FA03F7954001FA02F021FAE1
:1004540003F34FEA154E3843010CB3FBFEF71FFAC2
:1004640085F80EFB173341EA034107FB08F38B427F
:1004740004FA02F407D9691807F1FF3C2FD28B4222
:100484002DD9023F2944CB1A81B2B3FBFEF00EFBF7
:10049400103341EA034100FB08F38B4207D9691882
:1004A40000F1FF3C17D28B4215D902382944C91AEE
:1004B40040EA07473BE73746304609E70746E7E6A1
:1004C4001846FBE64145ABD2B8EB020A69EB0E02D3
:1004D40001381346A4E76046E9E7184695E76746FE
:1004E400D1E781467CE702382C4447E7ACF1020CA3
:1004F4002B442FE7384608E73746E9E6704700BF44
:10050400034613F8012B002AFBD1181A013870474F
:1005140010B504460E4B18784FF47A73B3FBF0F31E
:100524000C4A1068B0FBF3F000F096F868B90F2C91
:1005340001D901200AE0002221464FF0FF3000F0EB
:1005440049F8034B5C60002000E0012010BD00BFAF
:10055400000000200C00002008B50B4B1A6842F480
:1005640000721A601A6842F480621A601A6842F4CF
:1005740080721A60032000F01BF80020FFF7C8FF08
:1005840001F056F9002008BD003C0240034A1168FE
:10059400034B1B780B441360704700BF2C000020F2
:1005A40000000020014B1868704700BF2C00002099
:1005B400074AD36823F4E0631B041B0C000200F415
:1005C400E060184340F0BF6040F40030D0607047F2
:1005D40000ED00E030B4174BDB68C3F30223C3F132
:1005E4000704042C28BF04241D1D062D18D9033B21
:1005F4004FF0FF3505FA04F421EA0401994005FAA5
:1006040003F322EA0303194300280BDB0901C9B2EF
:1006140000F1604000F5614080F8001330BC704781
:100624000023E5E700F00F000901C9B2024B195499
:10063400F4E700BF00ED00E014ED00E0002807DB64
:1006440000F01F02400901239340024A42F820307F
:10065400704700BF00E100E00138B0F1807F0AD2AA
:10066400064B5860064AF02182F823100020986057
:1006740007221A6070470120704700BF10E000E0B5
:1006840000ED00E090F83530DBB2022B03D080237C
:10069400436501207047052380F8353002681368EC
:1006A40023F00103136000207047000000230F2B88
:1006B40000F2D180F0B583B039E0062200E00022D8
:1006C400AA403A430234644D45F82420634A14682E
:1006D400F24302EA04054F6817F4803F01D046EA6A
:1006E40004055E4C2560646802EA04054F6817F44B
:1006F400003F01D046EA0405584C6560A46802EA4C
:1007040004054F6817F4801F01D046EA0405534CD2
:10071400A560E46822404D6815F4001F01D046EA44
:1007240004024E4CE26001330F2B00F2928001224E
:100734009A400C6804EA0206B242F4D14C68651E81
:10074400012D03D9112C01D0122C12D185685F0020
:100754000324BC4025EA0405CC68BC402C438460D7
:10076400456825EA02054C68C4F300129A402A43FE
:100774004260C4685F000322BA40D24314408D68CB
:10078400BD402543C5604C68022C01D0122C13D106
:10079400DD08083550F825E003F007044FEA840C1F
:1007A4000F2404FA0CF42EEA040E0C6904FA0CF477
:1007B40044EA0E0440F82540046822404C6804F0E2
:1007C4000304BC40224302604A6812F0805FAAD04E
:1007D40000220192224A546C44F480445464526CC2
:1007E40002F480420192019A9C08A51C1A4A52F80C
:1007F400257003F0030295000F22AA4027EA02079E
:10080400184A90423FF45BAF02F58062904216D0E2
:1008140002F58062904214D002F58062904212D0B8
:1008240002F58062904210D002F5806290420ED0B0
:1008340002F5806290423FF440AF072240E7012274
:100844003EE702223CE703223AE7042238E7052286
:1008540036E703B0F0BD704700380140003C01406A
:10086400003802400000024012B909048161704757
:1008740081617047002800F09E8070B50446504B9B
:100884001B6803F00F038B4209D2CBB24C4A13709E
:10089400136803F00F038B4201D0012070BD23685D
:1008A40013F0020F17D013F0040F04D0454A9368D5
:1008B40043F4E0539360236813F0080F04D0414AD3
:1008C400936843F4604393603E4A936823F0F003D3
:1008D400A068034393600D46236813F0010F32D0E0
:1008E4006368012B21D09A1E012A25D9354A126842
:1008F40012F0020F61D033498A6822F003021343D5
:100904008B60FFF74FFE06462E4B9B6803F00C03EB
:100914006268B3EB820F16D0FFF744FE801B41F2EE
:1009240088339842F0D90320B8E7264A126812F4B3
:10093400003FE0D10120B1E7224A126812F0007FA3
:10094400D9D10120AAE71E4B1B6803F00F03AB4269
:1009540009D9EAB21A4B1A701B6803F00F03AB42B1
:1009640001D001209AE7236813F0040F06D0154A3A
:10097400936823F4E053E1680B439360236813F016
:10098400080F07D00F4A936823F46043216943EAB0
:10099400C103936000F044F80A4B9B68C3F303134C
:1009A400094AD35CD840094B1860094B1868FFF713
:1009B400AFFD002072E70120704701206EE700BF01
:1009C400003C024000380240F81900080C000020E6
:1009D40004000020014B1868704700BF0C00002081
:1009E40008B5FFF7F7FF044B9B68C3F38223034A60
:1009F400D35CD84008BD00BF00380240081A000884
:100A040008B5FFF7E7FF044B9B68C3F34233034A7F
:100A1400D35CD84008BD00BF00380240081A000863
:100A24002DE9F04B5C4B9B6803F00C03082B07D0BB
:100A34000C2B5BD0042B00F0AD805848BDE8F08B44
:100A4400554B5A6802F03F025B6813F4800F2AD0BA
:100A5400514B5B68C3F388131E4600275C010025D5
:100A6400E41A65EB0705A90141EA9461A001001BA2
:100A740061EB0501CB0043EA5073C400A01943EBBA
:100A840007014B0243EAD05344022046194600238F
:100A9400FFF7B6FB404B5B68C3F3014301335B00D4
:100AA400B0FBF3F0CAE73C4B5B68C3F388131E4604
:100AB40000275C010025E41A65EB0705A90141EA5A
:100AC4009461A001001B61EB0501CB0043EA507364
:100AD400C400A01943EB07018B0243EA905384023C
:100AE400204619460023FFF78BFBD3E72A4B5A68AD
:100AF40002F03F025B6813F4800F28D0264B5B683A
:100B0400C3F388131E4600275C010025E41A65EB35
:100B14000705A90141EA9461A001001B61EB0501ED
:100B2400CB0043EA5073C400A01943EB07014B0206
:100B340043EAD0534402204619460023FFF760FBE2
:100B4400154B5B68C3F30273B0FBF3F076E7124B0B
:100B54005B68C3F388131E4600275C010025E41A72
:100B640065EB0705A90141EA9461A001001B61EB53
:100B74000501CB0043EA5073C400A01943EB0701FD
:100B84008B0243EA90538402204619460023FFF760
:100B940037FBD5E7024851E7003802400024F4004F
:100BA40000127A0070B582B00446036813F0010F96
:100BB40041D0A64B9B6803F00C03042B32D0A34B0B
:100BC4009B6803F00C03082B27D0A04B9B6803F011
:100BD4000C030C2B59D06368B3F5803F5BD0B3F59D
:100BE400A02F5ED0994B1A6822F480321A601A68DA
:100BF40022F480221A606368002B5CD0FFF7D2FCD9
:100C04000546924B1B6813F4003F14D1FFF7CAFC4E
:100C1400401B6428F5D903209DE18C4B5B6813F4D9
:100C2400800FD2D0894B1B6813F4003F03D0636854
:100C3400002B00F08D81236813F0020F67D0834BE3
:100C44009B6813F00C0F4AD0804B9B6803F00C0395
:100C5400082B3FD07D4B9B6803F00C030C2B48D032
:100C6400E368002B74D07A4B01221A60FFF79AFCD8
:100C74000546764B1B6813F0020F60D1FFF792FC18
:100C8400401B0228F5D9032065E1704B5B6813F41F
:100C9400800FA0D0C6E76D4A136843F48033136015
:100CA400A9E76A4B1A6842F480221A601A6842F46F
:100CB40080321A609FE7FFF775FC0546634B1B689B
:100CC40013F4003FB7D0FFF76DFC401B6428F5D93F
:100CD400032040E15D4B5B6813F4800FBAD15B4B9A
:100CE4001B6813F0020F0AD0E368012B07D0012020
:100CF40031E1564B5B6813F4800FB1D1EFE7534AEF
:100D0400136823F0F803216943EAC10313602368DD
:100D140013F0080F40D0636963B34E4B01221A608D
:100D2400FFF740FC0546494B5B6F13F0020F33D1CC
:100D3400FFF738FC401B0228F5D903200BE1434A96
:100D4400136823F0F803216943EAC1031360DEE763
:100D54003F4B00221A60FFF725FC05463B4B1B68FE
:100D640013F0020FD3D0FFF71DFC401B0228F5D966
:100D74000320F0E0374B00221A60FFF713FC05460E
:100D8400324B5B6F13F0020F06D0FFF70BFC401BD6
:100D94000228F5D90320DEE0236813F0040F79D08C
:100DA4002A4B1B6C13F0805F33D100230193274B34
:100DB4001A6C42F080521A641B6C03F08053019346
:100DC400019B0125244B1B6813F4807F23D0A36867
:100DD400012B34D0052B41D01C4B1A6F22F0010299
:100DE4001A671A6F22F004021A67A368002B3FD017
:100DF400FFF7D8FB0646154B1B6F13F0020F48D1C3
:100E0400FFF7D0FB801B41F288339842F3D90320CB
:100E1400A1E00025D6E7104A136843F480731360F9
:100E2400FFF7C0FB06460C4B1B6813F4807FCED142
:100E3400FFF7B8FB801B0228F5D903208BE0034A97
:100E4400136F43F001031367CFE700BF003802407C
:100E540000004742800E474200700040404B1A6F2A
:100E640042F004021A671A6F42F001021A67BCE7E3
:100E7400FFF798FB06463A4B1B6F13F0020F08D09E
:100E8400FFF790FB801B41F288339842F3D903208B
:100E940061E0E5B9A369002B5CD0314A926802F0A5
:100EA4000C02082A59D0022B17D02E4B00221A60AC
:100EB400FFF778FB04462A4B1B6813F0007F45D0EC
:100EC400FFF770FB001B0228F5D9032043E0244AF6
:100ED400136C23F080531364DCE7224B00221A6066
:100EE400FFF760FB05461E4B1B6813F0007F06D01E
:100EF400FFF758FB401B0228F5D903202BE0E369D8
:100F0400226A1343626A43EA8213A26A5208013ACC
:100F140043EA0243E26A43EA0263226B43EA02734E
:100F24000F4A53600F4B01221A60FFF73BFB044644
:100F34000B4B1B6813F0007F06D1FFF733FB001B3C
:100F44000228F5D9032006E0002004E0002002E096
:100F5400012000E0002002B070BD0120FBE700BFCB
:100F640000380240600047420268D36823F490735B
:100F7400D3600268536923F001035361202380F88E
:100F84003A30704790F83930DBB2212B2AD183688C
:100F9400B3F5805F16D0036A5A1C02621A7803689C
:100FA4005A60C38C013B9BB2C384EBB90268D3681B
:100FB40023F08003D3600268D36843F04003D36016
:100FC40000207047036A1B880268C3F30803536058
:100FD40003691BB9036A02330362E2E7036A01335C
:100FE4000362DEE702207047002070472DE9F04BD2
:100FF40004460268136923F44053C1680B43136128
:1010040083680269134342691343C2691A4301683E
:10101400CB6823F4164323F00C031343CB6002681C
:10102400536923F4407381690B435361C369B3F576
:10103400004F3BD00368714A934200F0AB8002F545
:101044008062934200F0A680FFF7CAFC4FF00009CB
:10105400061849EB090716EB000B47EB090C4FEA9E
:10106400CC0343EA5B734FEACB0293469C46636826
:101074009A009B0F10EB0B0049EB0C01FFF7C0F833
:101084005F4DA5FB00325109642202FB11021301DA
:101094003233A5FB03235B0903F0F00202EB0112D8
:1010A40003F00F03216813448B60A4E00368534AE0
:1010B400934239D002F58062934235D0FFF790FC19
:1010C40083464FF0000C06184CEB0C0716EB000897
:1010D40047EB0C094FEAC90343EA58734FEAC802C5
:1010E4009046994662680021921841EB01031BEB7C
:1010F40008004CEB0901FFF783F8414DA5FB0032D2
:101104005109642202FB1102D3003233A5FB0323ED
:101114005B095A0002F4F87202EB011203F00703B0
:10112400216813448B6066E0FFF76AFC80464FF049
:101134000009061849EB090716EB000B47EB090CED
:101144004FEACC0343EA5B734FEACB0293469C46D7
:1011540062680021921841EB010318EB0B0049EB84
:101164000C01FFF74DF8264DA5FB0032510964220E
:1011740002FB1102D3003233A5FB03235B095A009F
:1011840002F4F87202EB011203F00703216813441E
:101194008B6030E0FFF734FC4FF00009061849EB90
:1011A400090716EB000B47EB090C4FEACC0343EAA3
:1011B4005B734FEACB0293469C4663689A009B0F8D
:1011C40010EB0B0049EB0C01FFF71AF80C4DA5FBD3
:1011D40000325109642202FB110213013233A5FBD0
:1011E40003235B0903F0F00202EB011203F00F0387
:1011F400216813448B60BDE8F08B00BF00100140F0
:101204001F85EB512DE9F04105460F4616469846D9
:10121400069C2B681B6837EA03030CBF01230023D9
:10122400B3421DD1B4F1FF3FF3D02CB1FFF7BAF9AB
:10123400A0EB0800A042ECD92A68D36823F4D07349
:10124400D3602A68536923F001035361202385F88E
:10125400393085F83A30002385F83830032000E02F
:101264000020BDE8F08158B310B5044690F8393039
:101274000BB3242384F839302268D36823F4005351
:10128400D3602046FFF7B2FE2268136923F490432B
:1012940013612268536923F02A0353612268D368D7
:1012A40043F40053D3600020E063202384F83930F2
:1012B40084F83A3010BD80F8383000F0D9FAD8E715
:1012C400012070472DE9F04383B01E4690F8393071
:1012D400DBB2202B56D104460D469046002956D049
:1012E400002A56D090F83830012B54D0012380F8CE
:1012F40038304FF00009C0F83C90212380F8393091
:10130400FFF750F90746A4F82480A4F8268084F84F
:10131400389010E000963B46002280212046FFF7DB
:1013240071FF002839D12B882268C3F30803536066
:101334002369C3B90235E38C9BB2B3B1E38C013B9F
:101344009BB2E384A368B3F5805FE3D000963B4689
:10135400002280212046FFF755FF00BB2A7823682E
:101364005A600135E7E70135E5E700963B46002280
:1013740040212046FFF746FF034690B9202284F817
:10138400392000E00223184603B0BDE8F0830123AE
:10139400F9E70123F7E70223F5E70323F3E7032340
:1013A400F1E70323EFE790F83930DBB2202B16D1B5
:1013B400B9B1C2B190F83830012B16D001628284E1
:1013C400C2840023C363212280F8392080F8383096
:1013D4000168CA6842F08002CA6018467047022059
:1013E400704701207047012070470220704790F831
:1013F4003A30DBB2202B20D109B312B390F8383045
:10140400012B20D081628285C2850023C3632222FE
:1014140080F83A2080F838300168CA6842F4807253
:10142400CA6001684A6942F001024A610168CA68F7
:1014340042F02002CA60184670470220704701201B
:101444007047012070470220704708B50168CB68D7
:1014540023F04003CB60202380F8393000F070F98A
:10146400002008BD08B590F83A30DBB2222B45D1F4
:101474008368B3F5805F0ED0036903BB03685A68C1
:10148400836A591C81621A70C38D013B9BB2C38568
:10149400F3B1002033E0826A036943B903685B68EF
:1014A400C3F308031380836A02338362ECE703689F
:1014B4005B68DBB21380836A01338362E4E7036809
:1014C4005B68826A511C816203F07F031370DBE75F
:1014D4000268D36823F02003D3600268D36823F43E
:1014E4008073D3600268536923F00103536120239E
:1014F40080F83A3000F00EF9002000E0022008BD28
:101504007047000010B5044602681368D168526938
:1015140013F00F0005D113F0200F02D011F0200FAB
:1015240056D100286AD012F0010202D111F4907F42
:1015340064D013F0010F06D011F4807F03D0E06B68
:1015440040F00100E06313F0040F04D01AB1E06B23
:1015540040F00200E06313F0020F04D01AB1E06B14
:1015640040F00400E06313F0080F07D011F0200FDF
:1015740000D11AB1E26B42F00802E263E26B002A86
:1015840048D013F0200F02D011F0200F24D123688B
:101594005B6903F04003E26B12F0080F00D13BB328
:1015A4002046FFF7E1FC23685A6912F0400F1BD074
:1015B4005A6922F040025A61636B8BB11A4A1A6568
:1015C400606BFFF75FF828B3606B036D984721E009
:1015D4002046FFF747FF1DE02046FFF743FFD6E70D
:1015E4002046FFF78DFF15E02046FFF789FF11E045
:1015F4002046FFF785FF0023E3630BE013F0800F21
:1016040002D011F0800F06D113F0400F02D011F078
:10161400400F04D110BD2046FFF7B4FCFAE7204682
:10162400FFF713FFF6E700BF3116000808B5806B1B
:101634000023C385C384FFF763FF08BD30B58BB0B7
:101644000024059406940794089409940194224B69
:101654001A6B42F004021A631A6B02F0040201923C
:10166400019A02941A6B42F080021A631A6B02F018
:1016740080020292029A03941A6B42F001021A63E6
:101684001A6B02F001020392039A04941A6B42F05B
:1016940002021A631B6B03F002030493049B0F4DB5
:1016A400224620212846FFF7DFF84FF40053059324
:1016B4000B4B0693079405A90A48FEF7F7FF20236E
:1016C4000593012306930794089405A92846FEF779
:1016D400EDFF0BB030BD00BF0038024000000240F7
:1016E400000021100008024008B50848084B0360B8
:1016F4004FF4E133436000238360C36003610C2231
:1017040042618361C361FFF7AEFD08BD2C01002077
:101714000044004038B5084C2046FEF7F1FE074D62
:1017240082B221462846FFF73EFE0622214628467D
:10173400FFF75DFE38BD00BF300000202C01002003
:1017440008B50A23022202490248FFF7BBFD08BD7F
:10175400101A00082C01002030B595B03422002165
:1017640007A800F033F90024029403940494059428
:10177400069400941B4B1A6C42F080521A641B6C42
:1017840003F080530093009B0194174A136823F4D9
:10179400404343F480431360136803F440430193CC
:1017A400019B0225079501230A9310230B930D95A2
:1017B4000E940F934FF4A87310930423119312956E
:1017C400139507A8FFF7EEF90F23029303950494EA
:1017D4004FF4805305930694294602A8FFF74AF86C
:1017E40015B030BD003802400070004008B5FEF767
:1017F400B3FEFFF7B1FFFFF721FFFFF775FF094BBA
:101804001D682846FEF77CFE074C4FF0FF3382B27A
:1018140029462046FFF756FD062204492046FFF7D5
:10182400E6FDFEE7080000202C0100203000002027
:1018340000B583B0002100910C4B5A6C42F48042F5
:101844005A645A6C02F480420092009A01911A6C14
:1018540042F080521A641B6C03F080530193019B85
:101864000720FEF7A5FE03B05DF804FB0038024034
:1018740010B588B00023039304930593069307934C
:101884000268184B9A4201D008B010BD002401949C
:1018940003F5FA331A6C42F400321A641A6C02F437
:1018A40000320192019A02941A6B42F001021A6307
:1018B4001B6B03F001030293029B0C23039302238B
:1018C4000493032306930723079303A90648FEF70B
:1018D400EDFE224621462620FEF77CFE2620FEF75A
:1018E400ADFED1E700440040000002407047FEE72F
:1018F400FEE7FEE7FEE770477047704708B5FEF75E
:1019040045FE08BD08B50248FFF7FCFD08BD00BF51
:101914002C010020054BD3F8882042F47002C3F850
:1019240088204FF000629A60704700BF00ED00E02D
:10193400DFF834D0002103E00C4B5B5843500431F2
:101944000B480C4B42189A42F6D30B4A02E0002390
:1019540042F8043B094B9A42F9D3FFF7DBFF00F04E
:1019640011F8FFF743FF704700000220341A000803
:101974000000002010000020100000206C01002056
:10198400FEE7000070B50D4E0D4CA41BA4100025FD
:10199400A54209D10B4E0C4C00F020F8A41BA41056
:1019A4000025A54205D170BD56F82530984701356C
:1019B400EEE756F8253098470135F2E72C1A00086F
:1019C4002C1A00082C1A0008301A00080244034696
:1019D400934200D1704703F8011BF9E7F8B500BF43
:1019E400F8BC08BC9E467047F8B500BFF8BC08BCFC
:0419F4009E46704754
:1019F80000000000000000000102030406070809B7
:101A08000000000001020304796500005479706544
:0C1A18002049206563686F0D0A00000083
:081A240010E8FF7F0100000043
:041A2C00E9010008C4
:041A3000C5010008E4
:101A34000100000010000000141A00080024F40043
:0400000508001935A1
:00000001FF
